:100000000C308A004B2C00000A108A100A1182075B
:1000100038340834013406340C348C12341732333B
:10002000D616251A2E19E636411020008A12641DB4
:100030002532BA126410C220C4214C29452952101D
:1000400020008A12641D2532BA126410C7274F227D
:100050002010201020000A28C21820336F39A03148
:100060006F37E634671020000A3AE8326E105021EC
:10007000311DA01264102010201000010A3AE8324D
:100080006E105021311DA0126410201020100000AD
:100090000D24EF3A7210F7347434202842192C10D2
:1000A00000018D266937753A6510F73474342028BD
:1000B00042192C1000004F080739F7004F0CF800C8
:1000C000F80CF80C1F30F8057808510784008313EA
:1000D00052188317F801F80AF70A6F28F80DF70B82
:1000E0006E28D00803197728780880047A28F80940
:1000F0007808800508004F30840083130008031936
:100100008E280230F800F701F70B8428F80B8328BB
:100110009730F700F70B8A28800B81280800210808
:10012000CF00D001D201D1015B202108CF00D00146
:10013000D2018030D1005B202730F700F70B9E28DA
:10014000A128CD080319A9288316061283120616C2
:10015000AD2883160612831206120000831688014A
:1001600083124E0888002108CF000130D000D20150
:10017000D1015B202108CF00D001D2018030D10015
:100180005B200130CF007B202108CF00D001D201BD
:10019000D1015B202108CF00D001D2018030D100F5
:1001A0005B200530CF007B2008002108CF00D00164
:1001B000D201D1015B202108CF00D001D2018030D3
:1001C000D1005B200F30CF007B20B7013708023C05
:1001D000031CF42883168801303083128800053010
:1001E000CF007B20B70AE628B7013708043C031C80
:1001F000022937080420B800CD013808CE008F202E
:10020000B70AF52808000830F80000000911831625
:10021000091100008312BF0D8910031C12298316D7
:1002200089148312031817298316891083128316E1
:1002300009158312091D1A29F80B05290000091157
:1002400083160911000089140000000009158312AB
:10025000091D2829F801000089187814091183164E
:1002600009118312891083168910831208008318DC
:100270003C29543084008313F701F801F901FA0195
:10028000D401D501D601D7015308520451045004BA
:1002900003197A292030D8000310CC0DCD0DCE0DD6
:1002A000CF0DD40DD50DD60DD70D53085702031D14
:1002B000632952085602031D632951085502031D84
:1002C000632950085402031C74295008D4025108B1
:1002D000031C510FD5025208031C520FD6025308BB
:1002E000031C530FD7020314F70DF80DF90DFA0D87
:1002F000D80B4C2954088000840A55088000840AD1
:1003000056088000840A5708800008003D30A1008C
:10031000D5203530A100D5201F179F1783169F17B2
:1003200083121F14831603170908C03989000313A9
:100330001F129F12073003178800031389108312BE
:100340008914831609118312091583168914000074
:10035000091500008312891083168910000083128A
:1003600009118316091190308312BF000321513007
:10037000BF00032183168910000009158312091D8F
:10038000BF290000C32900008316891400000C3027
:100390008312B70083168914000009150000831228
:1003A0008910831689100000831209118316091120
:1003B00090308312BF000321AC30BF000321370807
:1003C000BF00032183168910000009158312091D3F
:1003D000E7290000EB29000083168914000086102D
:1003E000831286108316061083120610B8012A089D
:1003F000B700831612088312B900BA01B90A0319AB
:10040000BA0A0310B90DBA0DB90DBA0DBD01BC0180
:100410003A08BB003908BA00C101C0013808BF0062
:100420003708BE002030C600C201C301C401C501A7
:100430003D08FA003C08F9003B08F8003A08F700CC
:100440000310771C312A3E08C2073F0803183F0FEC
:10045000C30740080318400FC40741080318410FA1
:10046000C507C50CC40CC30CC20CFA0CF90CF80C73
:10047000F70CC60B202A7A08CF007908CE0078083E
:10048000CD007708CC00D301D2010330D100E83091
:10049000D00037217708F900F80CF70CF80CF70CAE
:1004A00077089500F90DF90DF90DF90DCF30970585
:1004B0003030790597048A150A128F2C4208F8010A
:1004C00041020318662A4108F700722AF701083032
:1004D000C300C10DF70D420877020318F700F80DAD
:1004E000C30B692A0800F701F801430803104418F8
:1004F000F707F70CF80CC418F707F70CF80C4419B9
:10050000F707F70CF80CC419F707F70CF80C441AA6
:10051000F707F70CF80CC41AF707F70CF80C441B94
:10052000F707F70CF80CC41BF707F70CF80C0800DA
:100530003D08C1000A30C2005E227808BE003E08B5
:10054000C3000A30C400732278083D02BF003E0E8B
:10055000F700F030F70577083F04F8000800C00105
:100560003F0840020318CD2A3E080139031DBD2A69
:100570008316861183128611C12A8316861183126F
:1005800086150310BE0C83160611831206158316FA
:10059000061183120611C00AB02A08003308BD00F4
:1005A00098227808B3003408BD0098227808B40077
:1005B000B701B801B901BA013308BB003408BC0067
:1005C0008316061183120611831606108312061471
:1005D00083168610831286143908BD009822780885
:1005E000BD00BE000830BF00AF223808BD00982211
:1005F0007808BD00BE000830BF00AF223708BD003C
:1006000098227808BD00BE000830BF00AF223A082B
:10061000BD0098227808BD00BE000430BF00AF22A4
:100620003B08BD0098227808BD00BE000830BF001E
:10063000AF223C08BD0098227808BD00BE000830FB
:10064000BF00AF2283168610831286108316061011
:100650008312061008008E30F7003C08F8003B08B3
:10066000F900FA01F808031D3F2B7908F800F90199
:100670000830F702F808031D3F2BF701472B031042
:10068000F81B462BF90DF80DF7033F2BF813080064
:100690004C080319B82BD40050080319B82BD40701
:1006A0000318592B7F30D402031CB82B0319B82B25
:1006B0005D2B8130D4070318B82B5408F700F801DC
:1006C000F901FA014D08D800D8174E08D7004F0895
:1006D000D6001830D400D501561C862B5308FA07D3
:1006E000031C782BF90A031D782BF80A0319D51778
:1006F0005208F907031C7F2BF80A0319D517510874
:10070000CE00CE174E08F8070318D517D50DF80CF4
:10071000F90CFA0CD80CD70CD60C0310D40B6B2B9D
:100720000130F7070318B82BF81B9D2BD80DFA0DD5
:10073000F90DF80DF7030319B82BD81FAE2BFA0AE1
:10074000031DAE2BF90A031DAE2BF80A031DAE2BB9
:10075000F80CF90CFA0CF70A0319B82B4D08D50060
:100760005108D506D51FB62BF817BC2BF813BC2B98
:10077000F701F801F901FA0108003F080319822C7A
:10078000CB0043080319822CCB02031CCC2B7F30F7
:10079000CB070318822CD22B8130CB02031C822C76
:1007A0000319822C4B08F700F801F901FA01CA017C
:1007B0004008C900C9174108C8004208C7001930DD
:1007C000CB004608C7020318F52B0130C8020318F6
:1007D000F52BC9020318F52BCA020318F52BCA0A18
:1007E000C90AC80A4608C707272C4508C8020318C3
:1007F000102C0130C9020318102CCA020318102C47
:10080000CA0AC90A4508C8074608C707031C272C97
:10081000C80A031D272CC90A031D272CCA0A272C26
:1008200044088038C9020318262C0130CA02031874
:10083000262CCA0A44088038C9074508C807031C83
:10084000042CC90A031D042CCA0A042C7A14CB0BED
:100850002A2C352C0310C70DC80DC90DCA0D031065
:10086000FA0DF90DF80DCC0DE12B4C1C3D2C0310AD
:10087000F80CF90CFA0CCC0C402CF7030319822C61
:10088000CC1B692C0310C70DC80DC90DCA0D460835
:10089000C7020318552C0130C8020318552CC90291
:1008A0000318552CCA02031C782C4508C8020318EB
:1008B000602C0130C9020318602CCA02031C782C7A
:1008C00044088038C9020318692C0130CA02031C8D
:1008D000782CFA0A031D782CF90A031D782CF80AE3
:1008E000031D782CF70A0319822CF80CF90CFA0C6A
:1008F0004008CB004408CB06CB1F802CF817862C71
:10090000F813862CF701F801F901FA0108004C08E8
:100910000D3A0319922C013A03199A2C063A03193D
:100920009F2CA42CCD010130CE008F200230CF00AF
:100930007B20A92CCD018030CE008F20A92CCD01A9
:10094000C030CE008F20A92C0130CD004C08CE0045
:100950008F2008000408C4004308C6000319C92CEE
:100960004208CF004108CE004008CD003F08CC002F
:10097000D301D2012030D1008230D00048237A0840
:10098000C2007908C1007808C0007708BF00C60B14
:10099000B02C4208CF004108CE004008CD003F08EF
:1009A000CC004C08B63CCC00FA014D08D000CD1765
:1009B0000310CD0CCE0CCF0CFA0CF90CF80CF70C84
:1009C000CC0BD82CD01FEF2CF709F809F909FA093C
:1009D000F70A0319F80A0319F90A0319FA0A7A0837
:1009E000C2007908C1007808C0007708BF00C21FA4
:1009F000062DC403C416BF09C009C109C209BF0A34
:100A00000319C00A0319C10A0319C20A3B30CB00FB
:100A10009A30CA00CA30C900C8010A30C60043086B
:100A20000319C40A83143F30840083134208CF00A3
:100A30004108CE004008CD003F08CC004B08D30051
:100A40004A08D2004908D1004808D0003721780868
:100A5000F708031D3E2D430A460203193E2D4408A4
:100A60000319402D0F3946020319382D0318702D34
:100A7000C41B702D441B402D20306C2D2030C4052C
:100A8000C41E4E2DC4124308031DC4037708C400BE
:100A90002D30CC0087244408F700C40143084602E7
:100AA000031D5C2D7708C4002E30CC008724440839
:100AB000F7002030C40500303030C41E6C2DC41245
:100AC0004308031DC4037708C4002D30CC008724DD
:100AD0004408F700C4013030F7077708CC008724BA
:100AE00083104B08CF004A08CE004908CD004808C3
:100AF000CC00D301D201D1010A30D00037217A08CD
:100B0000CB007908CA007808C9007708C800C60B6E
:100B1000122D08000B08BC008B13831603178C17CB
:100B20000C1400000000841F9A2D831203138B17EE
:100B3000831603170318CF2D83120C087F39031374
:100B4000BC0003170D080313BD0003170F080313A0
:100B5000BE003C08CC0087243D0803178D0003131A
:100B60003E0803178F0003130B08BF008B13831677
:100B700003178C170C1400000000841FC42D83126F
:100B800003138B178316031783120313BB0BC92D93
:100B9000CC2D83160317CF2DEE2D8316031783124A
:100BA0000C0D0E0D7F390313BC0003170D08031342
:100BB000BD0003170F080313BE003C08CC008724B8
:100BC0003D0803178D0003133E0803178F008D0A9D
:100BD00003198F0A03100313BB0B8A2D0800BF01F2
:100BE0003E083F020318072E8316061183120615CE
:100BF0008316861583128619FF2D0310002E031409
:100C0000C00C8316061183120611BF0AF02D40088E
:100C1000F80008003F08C000400EF7000F30F7054D
:100C20007708C200C3000A30C40073227808BF00EE
:100C300040080F39BF073F08F80008008316061167
:100C4000831206118316061083120610831686106F
:100C5000831286141C30BE00EF250830BE00EF253D
:100C60007808BB00BF000A267808B3000830BE0031
:100C7000EF257808BB00BF000A267808B4000830CA
:100C8000BE00EF257808BB00BF000A267808B50033
:100C900083168610831286108316061083120610A0
:100CA0003308BF000A267808B3003408BF000A26BC
:100CB0007808B400080020303C1E3030BD003B08EE
:100CC000F700BB1F6B2EF709F70A7708BB002D3022
:100CD000BD00BC173C143B08C1006430C2005E225A
:100CE0007708BB0030307807BE003B08C1000A30EF
:100CF000C2005E2230307707C00030307807BF0076
:100D00003D08F70030303E0203198A2EBC14BC1B8C
:100D10003C159E2E3D08BE002030BD0030303F0205
:100D20000319962E3C14BC1BBC149E2E031D3C14B0
:100D3000031D9E2E3E08BF002030BE003C19A52E8C
:100D4000BC18A82E3C18AB2EAE2E3D08CC00872434
:100D50003E08CC0087243F08CC0087244008CC0004
:100D6000872408000830C0007708C1008316891462
:100D7000000009158312091DBB2E89180314891C54
:100D80000310F80D00008316091183120911C00B1E
:100D9000B62E8316891400008312891041080319A6
:100DA000D42E83168910831200008316091583122E
:100DB000091DD82E000009118316091100008312A5
:100DC000891083168910831208004208440680396E
:100DD000C600C21FF02EC109C209C10A0319C20A06
:100DE000C41FF72EC309C409C30A0319C40A10306B
:100DF000C500F701FA01C20CC10C031C052F430802
:100E0000F7070318FA0A4408FA07FA0CF70CF90C6A
:100E1000F80CC50BFB2EC61F122FF809F909F80AAA
:100E20000319F90A08000B08BB008B13831603177C
:100E30008C170C1400000000841F232F831203134F
:100E40008B178316031783120C087F3903196D2F34
:100E50000313BB0003170D080313BC0003170F088F
:100E60000313BD003B08CC0087243C0803178D000A
:100E700003133D0803178F0003130B08BE008B13E9
:100E8000831603178C170C1400000000841F4D2FCD
:100E9000831203138B178316031783120C0D0E0D89
:100EA0007F3903196D2F0313BB0003170D080313BC
:100EB000BC0003170F080313BD003B08CC008724B8
:100EC0003C0803178D0003133D0803178F008D0A9C
:100ED00003198F0A0313132F031703130800361483
:100EE000B801B9013A101E263708683A03197C2F59
:100EF000053A0319812F862F1730B9003308B8003F
:100F0000872F3B30B9003408B800872FB90134303F
:100F100003178D0000308F0003100B300313BB004C
:100F20008A253808BB001830BC005B263A3003170E
:100F30008D0000308F00031405300313BB008A2599
:100F400020162008831687008312071EDD2F3A180B
:100F5000D22FA01520088316870083128719D12F5E
:100F6000390838020318B62FB80AB72FB8013A1457
:100F70003E3003178D0000308F0003100B30031339
:100F8000BB008A253808BB001830BC005B26443003
:100F900003178D0000308F00031405300313BB00CE
:100FA0008A25D92FA0152008831687008312871958
:100FB0003A108A153A218A11A02F3808F800080043
:1010000083168914000009150000831289108316C5
:101010008910000083120911831609119030831280
:10102000BF008A1103218A15AA30BF008A1103214B
:101030008A15831689140000091500008312091D02
:101040001F28891083168910000083120911831646
:10105000091191308312BF008A1103218A150130D2
:10106000F7008A11B2268A157808BB00F7018A11A9
:10107000B2268A157808BC0083168910000009156D
:101080008312091D41280000452800008316891499
:1010900000008312C0013B08BF00BB1BC003400817
:1010A000C2003B08C100C4016430C3008A11E526B8
:1010B0008A157908BE007808BD003C0EF7000F3095
:1010C000F7057708C000C2014008C100C4013230F2
:1010D000C3001030C500F701FA01C20CC10C031C9B
:1010E00077284308F7070318FA0A4408FA07FA0CA6
:1010F000F70CF90CF80CC50B6D287908C000790CB9
:10110000FA00780CF900FA0CF90CFA0CF90CFA0C4C
:10111000F90C0F30FA057908BD077A0803187A0F21
:10112000BE073E08C2003D08C100C4010930C3002B
:101130008A11E5268A157908BE007808BD003E08A8
:10114000C0003D08BF00C2010530C1004008420692
:101150008039C400C01FB128BF09C009BF0A0319E4
:10116000C00AC21FB828C109C209C10A0319C20AAC
:10117000F801F901F701FA014208031DC2284108EC
:101180000319DC281030C3000310BF0DC00DF70D8C
:10119000FA0D42087A02031DCF2841087702031C8A
:1011A000D8284108F702031CFA034208FA02031484
:1011B000F80DF90DC30BC428C41FE328F809F90979
:1011C000F80A0319F90A80307807BD007908BE00D3
:1011D0000C3003180D30BE073D08F8003E08F9003A
:1011E0007908BC007808BB008E30F7003C08F80096
:1011F0003B08F900FA01BC1F0229F809F909F90AAC
:101200000319F80AF808031D0F297908F800F901F5
:101210000830F702F808031D0F29F70118290310F9
:10122000F81B1629F90DF80DF7030F29BC1FF81349
:101230007A08A5007908A4007808A3007708A2001E
:101240002508C2002408C1002308C0002208BF00EE
:10125000C601C5014830C4008530C3008A11BD23D2
:101260008A157A08A5007908A4007808A3007708F1
:10127000A20008000030F8001F08C33978049F005E
:101280000630F700F70B422900009F149F184629EB
:1012900083161E088312A6001E08A7002708BC009C
:1012A0002608BB008A112B238A157A08BE0079080C
:1012B000BD007808BC007708BB007A08CF00790829
:1012C000CE007808CD007708CC00D301D2017A3067
:1012D000D1008830D0008A1148238A157A08BE00D0
:1012E0007908BD007808BC007708BB007A08C20006
:1012F0007908C1007808C0007708BF00C601C501A1
:10130000C4018930C3008A11BD238A157A08BE0042
:101310007908BD007808BC007708BB007A08C200D5
:101320007908C1007808C0007708BF00C601C50170
:101330000C30C4008430C3008A11BD238A157A089A
:10134000AE007908AD007808AC007708AB00043037
:10135000F8001F08C33978049F000630F700F70B28
:10136000AF2900009F149F18B32983161E0883120B
:10137000A6001E08A7002708BC002608BB008A118B
:101380002B238A157A08BE007908BD007808BC00B6
:101390007708BB007A08CF007908CE007808CD0026
:1013A0007708CC00D301D2017A30D1008830D00048
:1013B0008A1148238A157A08BE007908BD0078088A
:1013C000BC007708BB007A08C2007908C100780821
:1013D000C0007708BF00C601C501C4018930C30041
:1013E0008A11BD238A157A08B2007908B1007808FD
:1013F000B0007708AF003530A1000C30CC008A1166
:1014000087248A15033084002E08C2002D08C100ED
:101410002C08C0002B08BF000230C3008A11AA2488
:101420008A155630CC008A1187248A152D30CC00BD
:101430008A1187248A15033084003208C2003108DB
:10144000C1003008C0002F08BF000230C3008A115D
:10145000AA248A15133003178D0000308F0003145F
:1014600004300313BB008A118A258A153618BE2B57
:101470008A111E268A15BE01BD012030BC008230B3
:10148000BB002E08C2002D08C1002C08C0002B088C
:10149000BF003C08C3004008C306C31F542A031101
:1014A0000310BC1B0314872A3C08C3003F08C40078
:1014B0003B08C4020319622AC31F872A0308013AA2
:1014C0008300872A4008C4003C08C40203196E2A1E
:1014D000C31F872A0308013A8300872A4108C400F2
:1014E0003D08C40203197A2AC31F872A0308013A58
:1014F0008300872A4208C4003E08C4020319862AD2
:10150000C31F872A0308013A8300872A0310031C9C
:101510008B2AB61C8D2AB61CCD2A0A30CC008A1123
:1015200087248A153308BB001830BC008A115B265B
:101530008A153A30CC008A1187248A153408BB00FA
:101540001830BC008A115B268A153A30CC008A110B
:1015500087248A153508BB001830BC008A115B2629
:101560008A151A3003178D0000308F0003140C30D9
:101570000313BB008A118A258A15831685128312EC
:101580008516201020088316870083120710831603
:10159000091083120910B6140B2B0A30CC008A11E3
:1015A00087248A153308BB001830BC008A115B26DB
:1015B0008A153A30CC008A1187248A153408BB007A
:1015C0001830BC008A115B268A153A30CC008A118B
:1015D00087248A153508BB001830BC008A115B26A9
:1015E0008A15253003178D0000308F0003140A3050
:1015F0000313BB008A118A258A1520102008831640
:1016000087008312071483168512831285128316AE
:101610000910831209143D30A1000830F8001F089A
:10162000C33978049F000630F700F70B152B000034
:101630009F149F18192B83161E088312A8001E08DA
:10164000A9002908BC002808BB008A112B238A1591
:101650007A08CF007908CE007808CD007708CC0052
:10166000D301D2017A30D1008830D0008A114823CA
:101670008A157A08BE007908BD007808BC00770892
:10168000BB003E08C2003D08C1003C08C0003B084A
:10169000BF00C601C501C4018930C3008A11BD2342
:1016A0008A157A08BE007908BD007808BC00770862
:1016B000BB003E08C2003D08C1003C08C0003B081A
:1016C000BF00C601C5012030C4008230C3008A11AA
:1016D000BD238A157A08BE007908BD007808BC00D1
:1016E0007708BB000C30CC008A1187248A154C3057
:1016F000CC008A1187248A153A30CC008A118724BD
:101700008A15033084003E08C2003D08C1003C0831
:10171000C0003B08BF000230C3008A11AA248A150A
:101720002530CC008A1187248A1500202030CC0077
:101730008A1187248A155430CC008A1187248A158F
:101740003A30CC008A1187248A150330840025089A
:10175000C2002408C1002308C0002208BF000230D4
:10176000C3008A11AA248A152B3003178D0000307C
:101770008F008A11031313278A15FC2B8A111E264A
:101780008A1500200A30CC008A1187248A1503307C
:1017900084002508C2002408C1002308C0002208D4
:1017A000BF000230C3008A11AA248A152030CC0061
:1017B0008A1187248A153308BB001830BC008A11AF
:1017C0005B268A153A30CC008A1187248A153408A2
:1017D000BB001830BC008A115B268A153A30CC0059
:1017E0008A1187248A153508BB001830BC008A117D
:1017F0005B268A153D30A1000800201620088316BC
:1018000087008312071A472C3618472C2016200809
:10181000831687008312071A0F2C3A21062C3614E0
:101820003A213D30A100483003178D0000308F0071
:101830008A11031313278A156830B7008A116F279E
:101840008A157808B3008A11CE228A15201620083E
:10185000831687008312071A3A21513003178D002F
:1018600000308F008A11031313278A156D30B700DB
:101870008A116F278A157808B4008A11CE228A153A
:1018800020162008831687008312071A3A21361083
:101890008A150A129B2C03081F39830071308316A6
:1018A0008F000F08FF308312A0003E308316920095
:1018B00004308312920020112008831687009B01B8
:1018C0009C0101309D001F30831295001C30970051
:1018D000A501A401A301A201A701A601A901A801D4
:1018E0006430AA00AE01AD01AC01AB01B201B1019F
:1018F000B001AF013610B610831603170908C039BE
:10190000890003131F129F120030031788008312EF
:1019100087018801890183138A11031386298A1597
:101920008316091083120914B301B4018A11CE225F
:101930008A153A21FD2B2016200883168700831272
:10194000071EA82CA0152008831687008312871D68
:06195000B610992C6300A3
:04400E00E42FFF3F5D
:00000001FF
;PIC16F887
;CRC=4F3D  CREATED="18-Apr-14 00:22"
